:020000040800F2
:10000000A80700200D020008A132000849310008AD
:1000100099320008C90B0008713800080000000080
:100020000000000000000000000000000938000887
:10003000310C0008000000000138000811380008E9
:1000400027020008270200082702000827020008EC
:1000500027020008270200082702000827020008DC
:1000600027020008270200082702000827020008CC
:1000700027020008270200082702000827020008BC
:1000800027020008270200082702000827020008AC
:10009000270200082702000827020008270200089C
:1000A000270200082702000827020008270200088C
:1000B000270200082702000827020008270200087C
:1000C000270200082702000827020008270200086C
:1000D000270200082702000827020008270200085C
:1000E000270200082702000827020008270200084C
:1000F000270200082702000827020008270200083C
:10010000270200082702000827020008270200082B
:10011000270200082702000827020008270200081B
:10012000270200082702000827020008270200080B
:1001300027020008270200082702000827020008FB
:1001400027020008270200082702000827020008EB
:1001500027020008270200082702000827020008DB
:1001600027020008270200082702000827020008CB
:1001700027020008270200082702000800000000EC
:1001800027020008270200082702000827020008AB
:10019000270200082702000827020008270200089B
:1001A00061310008513100082702000827020008C9
:1001B000270200082702000827020008270200087B
:1001C0002702000827020008210C00082702000867
:1001D000270200082702000827020008270200085B
:1001E000270200082702000827020008270200084B
:1001F0002702000827020008DFF80CD000F07AF888
:100200000048004779380008A807002006488047C2
:1002100006480047FEE7FEE7FEE7FEE7FEE7FEE7EB
:10022000FEE7FEE7FEE7FEE719380008F9010008DF
:100230002DE9F05F0546002092469B46884606461B
:10024000814640241BE0284641464746224600F0AE
:1002500041F853465A46C01A914110D311461846E8
:10026000224600F028F82D1A67EB01084F46224677
:100270000120002100F01FF817EB00094E41201E5D
:10028000A4F10104DFDC484631462A464346BDE876
:10029000F09FD2B201E000F8012B491EFBD270475B
:1002A0000022F6E710B513460A4604461946FFF742
:1002B000F0FF204610BD202A04DB203A00FA02F1AC
:1002C000002070479140C2F1200320FA03F3194344
:1002D00090407047202A04DB203A21FA02F00021E6
:1002E000704721FA02F3D040C2F120029140084346
:1002F00019467047064C074D06E0E06840F00103E0
:1003000094E8070098471034AC42F6D3FFF778FF23
:10031000A0C70908C0C709082DE9F04F8AB040F20C
:10032000AC08C2F20008D8F8047007EB470708EBE6
:1003300087073D69EF88002F00F06E810C46A98881
:100340000E0400F069810726034616FA81F6286834
:1003500089B2203A06F0F8057A434FEAD60B6E1AB6
:1003600002FB0B0001F0030551FA86F20490F6B28D
:10037000501E0690481E8A1921F0030140F2100910
:100380004E420021C2F200090390901E0090079592
:1003900009960597CDF804B00CE000BF0899059FB9
:1003A000013140F21009B94204F10104C2F200091E
:1003B00000F032810498BBF1010F01FB0B0207D062
:1003C000BBF1020F08D1128892FA92FE0EE000BF34
:1003D00092F800E00AE000BF92F800C055789278E9
:1003E0002D0245EA0C4505EB020E079D0398089186
:1003F0000328A0B20CD281464FF0340A4FF0000C13
:1004000040F2FC26002DC2F2000640F09380C5E7C2
:100410004FF0010CDDF800A00646029440F2FC20EB
:10042000D8F80410C2F200000AF1010500F1380208
:10043000342001FB0027D9F800000CEB030B01EB83
:1004400041012EFA05F5ABF10104ED0708F10805AD
:1004500006FB00F005EB81017F6A0CF1040C08BF7C
:10046000043110FA84F03424096847F820102EFA79
:100470000AF7D8F80400FF0700EB400100FB042056
:10048000D9F8004005EB810106FB04F4406A08BF7F
:10049000043114FA8BF4096840F824103424D8F895
:1004A0000400AAF10101D9F800702EFA01F100FB55
:1004B000042400EB4000C9070BF1010106FB07F71C
:1004C00005EB800008BF043017FA81F1646A006808
:1004D000342744F82100D8F80400D9F8004000EB94
:1004E000400100FB0720AAF1020274432EFA02F237
:1004F000AAF1040AD2070BF1020205EB810108BF41
:10050000043114FA82F2099C406A6444012C09689F
:1005100040F8221082D1B1464FF0340AACF1010C00
:10052000079DDDE901B440F2FC26002DC2F2000671
:100530003FF434AF40F21002D8F80400C2F20002D7
:10054000069900EB400700FB0A601568A1EB0C015F
:100550000CEB030208EB870705FB09F52EFA01F106
:10056000C90707F10801C06D08BF07F10C0115FAB2
:1005700082F7079D012D096840F827103FF40EAF60
:100580000CF10101069A571A40F21002D8F8040043
:10059000C2F2000219442EFA07F700EB400500FBF7
:1005A0000A601268FF0708EB850502FB09F205F1F6
:1005B0000807C06D08BF05F10C0712FA81F1079D0D
:1005C000022D3F6840F821703FF4E8AED8F80400EF
:1005D0000CF10201069A01EB030C00EB400700FB53
:1005E0000A6040F21006521AC2F2000608EB8707B2
:1005F0002EFA02F23568D207C06D05FB09F107F14A
:10060000080508BF07F10C0511FA8CF12A68079D4F
:1006100040F82120C2E600BF0AB0BDE8F08F00001C
:100620002DE9F04381B00A78002A40D040F2AC09AD
:10063000C2F20009D9F8043003EB430309EB83034A
:100640001B69DF8878438F1C17F8016C4EB13E7828
:10065000002E1CBF7E78002E03D0BE780437002EFB
:10066000F2D140F210089B88C2F20008B8F800707E
:100670009F421CD34F1E012684B20025B0B22146F2
:10068000D2B2FFF749FEBA788AB1D9F80400013531
:10069000D8F80010013700EB400009EB800000693A
:1006A000808800FB1511064489B28142E6D201B070
:1006B000BDE8F083000000002DE9F04F83B040F268
:1006C000AC0740F2FC2CC2F200073424C2F2000C4A
:1006D0008B467D6840F21001C2F20001904605EBA6
:1006E000450605FB04C44BF20002029307EB8607A4
:1006F000064640F2A420C4F20202C2F20000D7F87B
:1007000008900F68D4F85CA002604FF4403141605B
:1007100000218160A7EB0801C16000F0C5FBB0B902
:1007200040F2A4202946C2F2000000F065FB70B937
:1007300007FB0B6002990091494643460AEB800291
:1007400040F2A420C2F2000000F0DAFC10B103B0C5
:10075000BDE8F08F40F2A4200A21C2F2000003B0ED
:10076000BDE8F04F00F0D8BB40F21000C2F200002C
:10077000006870470000000040F21000C2F2000064
:10078000406870470000000080B584B043F6240044
:100790000022C4F20200016A41F080610162016A34
:1007A00001F0806103910399016841F0806101606B
:1007B000016821F080610160C16841F40001C160FD
:1007C000C16801F400010291029950F8141C41F42F
:1007D000000140F8141C50F8141C21F4000140F8EA
:1007E000141C016A41F000610162016A01F00061BC
:1007F00001910199016841F000610160016821F0F7
:10080000006101605820032101F0FEFD582001F035
:10081000E7FD5A200321002201F0F6FD5A2001F0E5
:10082000DFFD62200321002201F0EEFD622004B012
:10083000BDE8804001F0D4BD10B586B043F630006D
:1008400042F20044C4F20200C4F20204016841F41E
:1008500000710160006801A900F400700190019826
:100860004FF4004001900120CDE9020003200490E4
:10087000204601F095FA4FF400410022204601F095
:1008800063FB142001F078FA4FF400410122204666
:1008900001F05AFB0A2001F06FFA06B010BD00000B
:1008A00040F2AC01C2F20001486070470000000055
:1008B00040F2AC01C2F200014A6802EB420201EBD5
:1008C0008201C8607047000040F2AC01C2F2000132
:1008D0004A6802EB420201EB8201086170470000A6
:1008E00040F2AC01C2F200014A6802EB420201EBA5
:1008F000820188607047000080B586B043F6300101
:10090000C4F202010A6842F400720A60096801F444
:100910000071019140F20001019AC2F2000101EB65
:10092000800251F820000190012001A9CDE90200C8
:1009300003200490906801F033FA06B080BD0000F7
:100940002DE9F04F81B040F2480640F24010C2F26B
:100950000006CAF20000344635464FF0040800276E
:1009600044F8300F0720B0610021C6E9078020203D
:100970003064402070644FF4C0704FF00209C6E943
:1009800012074FF4006030654FF4805045F8149F13
:10099000C6E915072046C6F82C90C6E90999C6E9AC
:1009A0000D77C6F83C8000F04FF82046294602F04B
:1009B00057FBB0FA80F035464009307000974FF091
:1009C000010A45F804AF4FF6FF72204629464FF062
:1009D000100B3761C6E902BA02F07EFB012001F07C
:1009E000CBF94FF6FF7220462946C5F80090C6E9BC
:1009F00002BA376102F070FB0320286008204FF62E
:100A0000FF72C6E9030720462946C6F808B002F07F
:100A100063FB4FF40C700090C5F800804FF6FF7236
:100A20000098306120462946C6E902BA02F054FB1C
:100A300040F20361204602F037FB307880F001007D
:100A400001B0BDE8F08F0000F0B585B043F630018D
:100A500040F60046C4F20201C4F202066D460446A6
:100A60008A68032742F001028A608A6802F0010264
:100A70000092009A0A6842F480020A600A6802F44E
:100A800080020092009A0A6842F008020A600A682E
:100A900002F008020092009A0A6842F010020A600E
:100AA0000A6802F010020092009A0A6842F02002DE
:100AB0000A600A6802F020020092009A0A6842F076
:100AC00040020A600A6802F040020092009A0A6836
:100AD00042F080020A600A6802F080020092009AE6
:100AE0000A6842F480720A60096801F4807100911A
:100AF000009802200190012002900C2004904CF2FA
:100B00000370009030462946039701F049F94FF6EB
:100B10008370009006F58060294601F041F94FF698
:100B20003F00009006F50060294601F039F948F2CF
:100B30003710009006F54060294601F031F94FF674
:100B40002C70009006F58050294601F029F940F2FA
:100B5000FF60009006F5A050294601F021F940F20F
:100B60005C1546F21041C2F200054FF40030C4F2A9
:100B7000020128620020C5E90907C5E90B00C5E9A3
:100B800000108021A9604FF40071E9604FF480618A
:100B900029614FF4805169614FF480412563C5E9B3
:100BA00006102846AC6300F01BFB284600F060FBF3
:100BB00038200F21002201F027FC382001F010FC22
:100BC00005B0F0BD00000000FEE7000000000000DE
:100BD00080B582B001288C4610D840F2AC009CF859
:100BE0000030C2F200009CF801C020300021152224
:100BF000CDF800C001F064F802B080BD40F2AC0155
:100C000003461CF80000C2F20001009001F1200030
:100C100000213922CDF804C000F06EFF02B080BD83
:100C200040F2CC00C2F2000000F0D6BD000000008F
:100C3000704700000000000080B50A68002A0268C2
:100C400022D022F4F84C4A6AD1E9073E43EA0C0369
:100C500043EA0E031A430260426847F6FF7322EA32
:100C6000030CCA68D1E9013E43EA0C03D1F810C075
:100C700043EA0E031A434B6942EA0C0289691A439C
:100C800011434160002080BD47F6FF7322EA030C48
:100C9000CA68D1E9013E43EA0C03D1F810C043EA27
:100CA0000E031A434B6942EA0C02D1F818C01A43EA
:100CB000CB6942EA0C02D1F820C01A43496A42EAE1
:100CC0000C0211430160002080BD00000000000004
:100CD0000246406943F6FE7320EA0303002043EA1C
:100CE000410151617047000010B5024600696FF381
:100CF00015006FF01F04D1E900ECD1E9023140EAA0
:100D00000E0004EB431340EA0C000343002043EAC7
:100D10004121116110BD00002DE9F041002A8268D7
:100D200036D040F6FF734FF20006CFF60F73CFF6C2
:100D3000FF761A40CB684F696FF00F0406EB033360
:100D40000026CFF6F0761A4306EB07573A43826047
:100D5000C2688E68D1E9003702F07042013B04EBB3
:100D600007176FF0FF040D6904EB062600241A43F1
:100D7000CFF6FF7489693A4304EB054501393243E4
:100D80002A4342EA0161C1600020BDE8F08100BF52
:100D900001F1080602F0704CD1E900E278CE6FF064
:100DA0000F074FF2000807EB02126FF0FF0707EB87
:100DB0000323AEF1010747EA0C07CFF6FF7840F2B4
:100DC000000E3A4308EB0434CFF6FF7E00271A43A7
:100DD00089690EEB0545CFF6F077224307EB065302
:100DE00001392A431A4342EA016181600020BDE8CB
:100DF000F081000000000000F0B590F85020012ABA
:100E00004FF002024ED001EB410380F8512000EB7D
:100E1000C30303F1240C5E6B9CE834102404A2F19C
:100E2000090E2F06BEF1020F38BF05F07F4744EAD6
:100E30000C5403F1200C44EA4653002943EA07030B
:100E4000016842EA030213D04FF6F074CB69C0F296
:100E5000CC04BEF1010F03EA040342EA0302CA61B3
:100E6000DCF800200A6117D825F07F420A6213E0FF
:100E70004FF6F0744B6AC0F2CC04BEF1010F03EAE6
:100E8000040342EA03024A62DCF800208A6103D8C4
:100E9000C26A22F07F428A620022012180F851104A
:100EA00080F850201046F0BD80B310B5044690F88D
:100EB000510028B9002084F85000204600F028F89E
:100EC000022084F8510094E80710036823F44033AB
:100ED00019430160416B21F0070111434163016C2B
:100EE00043F6FF72914341EA0C010164416B2269B0
:100EF00021F44011636941EA025141EA43514163DF
:100F000000206065012184F8511010BD0120704758
:100F1000704700000000000070B582B0002201920E
:100F2000026804460D461068C0075BD001F014F853
:100F300022685168890755D4064650680190691C9B
:100F4000019800F0210015D0A8B9002D00F0C48050
:100F500001F002F8801BA84200F2C08022685068AD
:100F600080073FD450680190019810F0210FEFD016
:100F700001E000BF98B30198800603D5606D40F092
:100F8000020060650198C00703D0606D40F0010069
:100F90006065212090600120042185E05068019067
:100FA000019810F0210FE6D1506880071AD45068DC
:100FB0000190019810F0210FDDD15068800711D405
:100FC00050680190019810F0210FD4D1506880072B
:100FD00008D450680190019810F0210FCBD15068CF
:100FE0008007DBD5D069516A0843800658D500F0E8
:100FF000B3FF22685168C90652D406465068019072
:10100000691C019800F0290012D090B9002D6DD014
:1010100000F0A2FF801BA8426AD822685068C00670
:101020003ED450680190019810F0290FF0D000E0F4
:1010300098B3019800073FD40198800643D40198E3
:10104000C00703D0606D40F001006065292090600A
:101050000120042128E000BF50680190019810F0A1
:10106000290FE6D15068C0061AD450680190019843
:1010700010F0290FDDD15068C00611D450680190DE
:10108000019810F0290FD4D15068C00608D45068D8
:101090000190019810F0290FCBD15068C006DBD524
:1010A000122090600020012184F85110002184F862
:1010B000501002B070BD00BF606D40F0040060656C
:1010C00001988006BBD5606D40F002006065019814
:1010D000C007B7D1BAE700BF00F03EFF606D032143
:1010E00040F0200060650320DEE700BF00F034FF21
:1010F000606D032140F0200060650320D4E700000C
:10110000B0B590F850C0BCF1010F4FF0020C63D0A5
:101110004FF0010E80F850E080F851C0DDF810E08B
:10112000D0F800C044684EEA0343B4F5403FDCF811
:10113000445005F0404543EA0503CCF84430CCF870
:101140003C2011D1806801F47F0301F47F42032821
:101150005FFA81FE0CD8DFE800F03503192500BFE7
:1011600021F07F412EE000BFCCF80C102CE000BF36
:101170006FF0FF0000EA13304FF4704303EA1141AF
:10118000F02341EA1E1103EA122219E04FF47841DC
:101190006FF01F0001EA132100EA521041EADE015C
:1011A00001440FE04FF4F84000EA53204FF40043AD
:1011B00003EA11416FF01F0341EADE0103EA9212D4
:1011C00008448118CCF83810DCF8000040F0010029
:1011D000CCF800004FF0000C6046B0BD00000000ED
:1011E00080B538B1014690F83500022804D10220BC
:1011F00080BD00BF012080BD0A684AF6AB2C02F01A
:10120000F803CAF6AA2C1068A3F1100E20F0010012
:101210001060002010605060AEFB0C3C90602123F9
:10122000D0604FEA1C1C1061BEF15F0F536140F2A9
:10123000FF3322EA030246F22063C0F6000388BFB0
:10124000043213F80CC03F23C1E9162C03FA0CF347
:101250009360C1E90F00C1E91100C1E913004865BD
:1012600081F8350081F8340080BD000000000000E6
:10127000F0B581B0044600F06FFEECB105460220E7
:1012800084F835000021206884F83410016821F0CA
:101290000101016021680868C00711D000F05CFE00
:1012A000401B0528F6D9032220230320636584F818
:1012B000352001B0F0BD00BF012001B0F0BD00BF7E
:1012C00048F23F02251D0868CEF2100200EA02062D
:1012D00020692CCD324366691A43E3692A43A76922
:1012E0001043226A30431843636A1043042B40EAD8
:1012F00007021DD1206BD4E90A5E40EA0E00BEF160
:10130000000F40EA02000860486920F0030040EA4C
:10131000050040F0040C11D0B7F5005F34D0002F69
:1013200044D1022D45D0012D3AD03DB941E000BF56
:101330000A60486920F0070040EA030C01F0F80059
:101340004AF6AB221038CAF6AA22A0FB022340F2CA
:10135000FF32C1F814C0914346F220621B09C0F667
:1013600000025F2888BF0431D05C3F22A1650023C2
:10137000E06502FA00F0886001220020636584F8CD
:10138000352001B0F0BD00BF032DD7D801200022C9
:101390004023DFE805F0030E030500BF86E700BF2A
:1013A000AEF1C070B0FA80F0400904E0032D04D320
:1013B000C4D1CEF300600028C0D001200022402319
:1013C000636584F8352001B0F0BD00000000000026
:1013D000B0B5027C012A01D10220B0BD0268536B76
:1013E00043F001035363D2F8003423F00103C2F841
:1013F0000034D2F8003443F00103C2F80034D3685B
:1014000023F00303D360D2F80CC00B68D1E905E4E4
:10141000CD6943EA0C03D360536923F0070353619A
:1014200044EA0503556943EA0E032B4353611369EC
:1014300023F00F0313614B6815691D431561D2F842
:10144000005425F00E05C2F80054D2F8005445EAC5
:101450004303C2F80034536E4FF6FF75AB43536637
:101460008B68556E2B435366D2F8003423F0F0039B
:10147000C2F80034D1E903354C6A2B430D6A23438B
:101480002B43D2F800542B43C2F80034936E23F060
:1014900001039366896A936E19439166D2F8081422
:1014A00041F00101C2F80814D2F8081441F0020119
:1014B000C2F80814002101740846B0BD0000000005
:1014C00080B5027C012A01D1022080BD026848F269
:1014D000FF03CFF6F063D2F868C003EA0C0393660B
:1014E000D1E900C3D1F808E043EA0C03D1F80CC0FD
:1014F00043EA0E03D1F810E043EA0C03D1F814C01C
:1015000043EA0E03D1F818E043EA0C03D1F81CC0FB
:1015100043EA0E034CEA030C0B6A4CEA030C4B6AD9
:101520004CEA030C8B6A4CEA030CCB6A4CEA030CC2
:10153000936E43EA0C039366936E23F00203936663
:10154000096B936E1943916600210174084680BDB2
:10155000027C012A02D10220704700BF0268D36AD0
:1015600023F01F03D362D36A1943D16200210174AF
:101570000846704700000000B0B5027C012A01D186
:101580000220B0BD0368D1F808C0D1E9002ECD68B3
:10159000964588BF7246D3F8984004F0FC24C3F8FF
:1015A0009840D3F8984044EA02442243C3F8982074
:1015B000D3F89C2002F40042C3F89C200A6942EA56
:1015C0000542D3F89C5042EA0C622A43C3F89C209F
:1015D000D3F8A42022F47F42C3F8A4204969D3F8A9
:1015E000A42042EA0121C3F8A41000210174084696
:1015F000B0BD000000000000B0B582B0002845D0AA
:10160000054603200024687401942868D0F8041467
:1016100021F00801C0F80414D0F8041401F0080106
:10162000019101990194416821F0010141604168F3
:1016300001F0010101910199D0F8A01021F00601FB
:10164000C0F8A0100194D0F8301421F00101C0F8C6
:101650003014D0F8301401F0010101910199019486
:10166000D0F8301421F08071C0F83014D0F8300474
:1016700000F0807001900198284600F005FB6C6135
:101680006C742C74204602B0B0BD00BF012420460B
:1016900002B0B0BD00000000F0B583B040F22806F3
:1016A00040F2E805C2F20006C2F2000531690029E5
:1016B00000F1848004466868022845D001287DD165
:1016C00000211522342320460027009700F0F8FA65
:1016D00040F2CC000297C2F2000004230068D0F868
:1016E000041421F00801C0F80414D0F8041401F027
:1016F0000801029140F2FC21029AC2F2000140F27C
:101700004062CCF200020968C1F8AC204A6A42F09B
:1017100001024A6202973922D0F8041441F008010C
:10172000C0F80414D0F80404002100F0080002906E
:1017300002982A200090B01D0190204600F0DCF9AC
:10174000204600F0A9FA39E040F2CC010020C2F2B4
:10175000000102900968D1F8042422F00802C1F8BF
:101760000424D1F8042402F00802029240F2FC2280
:10177000029BC2F200024FF040431268C2F8AC3044
:10178000536A43F00103536202903922D1F80404F2
:10179000042340F00800C1F80404D1F80404002137
:1017A00000F00800029002982A200090B01C0190DE
:1017B000204600F0A1F94FF0FF3030616868012148
:1017C000012808BF0221696003B0F0BD00000000DD
:1017D000704700000000000010B504460068D0F813
:1017E0000C14C9071CBFD0F808145FEAC17171D18D
:1017F000D0F80C14890744BFD0F808145FEA81714F
:1018000070D4A069002808BF10BD2268D2F8BC00BF
:10181000D2F8C41008400104D2F8C010D2F8C82091
:1018200003D0636943F00103636110F4F81F02EA17
:10183000010003D0616941F002016161C1071FD15C
:10184000810723D410F00C0F03D0616941F010011F
:101850006161C10622D4810626D441062AD401063C
:101860002ED410F4F85F03D0606940F4007060611A
:10187000606968B32046BDE81040FFF7A9BF00BF0C
:10188000616941F0040161618107DBD5616941F063
:101890000801616110F00C0FD7D1DAE7616941F0FE
:1018A000200161618106D8D5616941F04001616123
:1018B0004106D4D5616941F0800161610106D0D54E
:1018C000616941F48071616110F4F85FCCD1CFE7B8
:1018D00010BD00BF0121C0F81014204600F048FAE6
:1018E000206885E70221C0F810142046FFF7D4FED7
:1018F00087E700000000000070B582B040B30446E6
:10190000407C0D4610B9204600F0C2F903206074F7
:10191000002001902068D0F8301441F08071C0F8A8
:101920003014D0F8300400F080700190019800F07D
:1019300013FB06462068D0F80C14C9040CD400F040
:101940000BFB801BB0F57A7FF4D9032002B070BD89
:10195000012002B070BD00BF48F20362D0F830141D
:10196000CFF6FC721140C0F8301495E80E00D20298
:1019700042EA8101D0F8302441EA03411143C0F822
:10198000301400210191D0F8301441F00101C0F869
:101990003014D0F8300400F00100019001980120CB
:1019A00000F0EAF900F0D8FA064600BF2068D0F847
:1019B0000C14C90506D400F0CFFA801BB0F57A7F6D
:1019C000F4D9C2E700210191416841F00101416071
:1019D000416801F0010101910199816821F0FF0145
:1019E00081608168D4E9022311438160D0F8A0109E
:1019F00041F00201C0F8A010D0F8A01041F004019D
:101A0000C0F8A010D0F8A41021F00301C0F8A41071
:101A1000D0F8A4101943C0F8A41000F09DFA216872
:101A20000646D1F8A410890718D000BF2168D1F864
:101A3000B00000F09400942817D000F08DFA801BBD
:101A4000B0F57A7FF2D900202074032002B070BD77
:101A500000F082FA801BB0F57A7FF4D82168D1F8C3
:101A6000B00000F014001428F2D1686840F60012AB
:101A7000C0F23D022B684243AE68002846F2A8102F
:101A800004BF40F60012C0F23D0206F003065843C0
:101A9000B240B2FBF0F0D1F8182422F03F02C1F8B6
:101AA0001824D1F818241043C1F818040020C1F8F4
:101AB000C400C1F8C800A06101904A6822F0010288
:101AC0004A604A6802F001020192019AD1F894201A
:101AD00022F00302C1F894206268D1F894301A43CE
:101AE00042F00102C1F8942060610121617402B0EA
:101AF00070BD0000000000002DE9F04F85B0824667
:101B0000007C012804D1022005B0BDE8F08F00BFA1
:101B100014460E4603930120DDE90E988AF8100062
:101B200000F01AFA054600BFDAF80070786FC007B7
:101B30000CD100F011FA401BB0F57A7FF4D90320E4
:101B400000218AF8101005B0BDE8F08F03990A460D
:101B50000329CDE9006428BF0322CDF808A07AB19B
:101B600098F80000012A49EA002909D098F80100F4
:101B7000022A49EA004903D098F8020049EA0069BC
:101B8000B1EB020CC7F8709062D008EB020E04971C
:101B900005E000BFBCEB090CCE443D6758D0E146E0
:101BA000BCF1040F28BF4FF00409A9F1010003287C
:101BB00006D20025002319F003002DD1EAE700BF6B
:101BC00029F003000EF10107464200256FF00304DF
:101BD000102000BF3A19A0F10801043492F80380E4
:101BE00092F804A092F805B0927945EA08050AFA3D
:101BF00001F129430BFA00F5294300F108053319D7
:101C0000AA40043342EA010500F12000E2D1231D7D
:101C1000049F19F00300BDD01EF80310DA0001285C
:101C200001FA02F145EA0105B4D0591C02281EF858
:101C300001204FEAC10102FA01F145EA0105A9D0EC
:101C4000981C1EF80010C00001FA00F00543A1E73F
:101C500003994FF48070DDE9003200EB01204FF66C
:101C60000071C0F2FF0142EA831208401043F86697
:101C70000020DDF808A000218AF8101005B0BDE8AA
:101C8000F08F00000000000070470000000000001E
:101C90007047000000000000017C012902D10220F1
:101CA000704700BF0168D1F8042442F00402C1F873
:101CB0000424002101740846704700000000000061
:101CC0002DE9F04381B00446007C012804D10220B4
:101CD00001B0BDE8F08300BF984616460F46DDF818
:101CE00020900120207400F037F905462068416FEC
:101CF000C9070BD100F030F9401BB0F57A7FF5D958
:101D000003200021217401B0BDE8F08346EA871169
:101D100041EA082141EA0941C166002000212174FD
:101D200001B0BDE8F083000082B00146007C0128CC
:101D300002D1022002B07047002001900A68536867
:101D400043F001035360536803F001030193019BC7
:101D50000090D2F8043443F00803C2F80434D2F8F7
:101D6000042402F008020092009A087402B070473E
:101D70007047000000000000B0B5044600F0ECF829
:101D800040F220010546C2F20001621C097818BF2A
:101D90000C4400BF00F0E0F8401BA042FAD3B0BDF5
:101DA0002DE9F04F82B000F13E420A2302F1FF77A5
:101DB00042F20042C4F2020243F6004B90424FEA64
:101DC000B72208BF0923092AC4F2010B38BF4FEA22
:101DD000B72300244FF0010E00270026009306E0F1
:101DE00001360437102E04F1020400F0A9800EFA27
:101DF00006F80B6813EA080FF2D0D1F804A003220A
:101E00000AF0030C02FA04F5ACF101036FEA0509CC
:101E1000012B0FD88368CD6803EA0903A5402B4343
:101E20008360CAF30015436823EA0803B5402B43D7
:101E3000436005E0BCF1030F02D14FF0030C22E038
:101E4000C3688D6803EA0903A540BCF1020F43EAA9
:101E50000503C36017D16FF003020F2502EA560392
:101E600007F01C02034405FA02FAD3F820C00D69FA
:101E70002CEA0A0C05FA02F242EA0C021A62D1F8C4
:101E800004A00AF0030C02680CFA04F302EA090247
:101E90001AF4403F42EA03020260A1D043F6440331
:101EA0004FF60849C4F20203CFF6FF790F251A68EE
:101EB00042F480421A601A6826F0030302F480425A
:101EC00001920BEB0302019B07F00C0352F809C0CF
:101ED0009D402CEA050C009D05FA03F343EA0C0330
:101EE00042F80930DBF808C04B684CEA0805DA0212
:101EF00058BF2CEA080543F60C499A02C4F20109BE
:101F0000CBF80850D9F800C04CEA080558BF2CEAB5
:101F100008059A03C9F80050DBF804C04CEA08052C
:101F200058BF2CEA0805DB03CBF80450DBF800208F
:101F300042EA080558BF22EA0805CBF800504FE7EF
:101F400002B0BDE8F08F0000002A08BF09048161DB
:101F5000704700000000000040F2A430C2F2000010
:101F6000006870470000000040F2200040F2A431F9
:101F7000C2F20000C2F2000100780A681044086052
:101F8000704700000000000080B543F60040C4F236
:101F90000200016841F400710160016841F4807140
:101FA0000160032000F060FA0F2000F005F800F057
:101FB00013FA002080BD000070B540F2200640F208
:101FC0004401C2F20006C2F200014FF47A730446E3
:101FD00032780968B3FBF2F2B1FBF2F1084601F086
:101FE0009BF80F2C4FF0010508D838B94FF0FF309F
:101FF00000222146002500F007FA7460284670BDD3
:102000002DE9F041044690F8A00001284FF00200AD
:1020100008BFBDE8F08134234FF0010884F8A080A8
:1020200084F8A10002FB0340D1E900CED1E90267A8
:10203000D1E90435C0E91235C0E91067C0E90ECE18
:10204000D1E906CED1E90865D1E90A37C0E91837E8
:10205000C0E91665C0E914CE0B6B8366204601F01B
:1020600087F82068C0F82480002084F8A18084F8D4
:10207000A000BDE8F0810000B0B578B30446006868
:10208000D0F8841021F00101C0F88410D0F80411B8
:1020900021F00101C0F80411416A41F002014162DE
:1020A000FFF75AFF054600BF2068816C490705D439
:1020B000FFF752FF401B6528F6D32068816921F0A5
:1020C00001018161204600F0EBF80020C4F8A40073
:1020D00084F8A10084F8A000B0BD00BF0120B0BD0D
:1020E000704700000000000070B504460068866B71
:1020F000456B710716D515F0040113D0416B21F023
:10210000040141630421C163D4F8A40040F001003C
:10211000C4F8A40084F8A110002084F8A000204690
:10212000FFF7DEFFB00718D515F0020015D02068C4
:10213000416B21F0020141630221C163D4F8A40084
:1021400040F00200C4F8A400042084F8A10000209C
:1021500084F8A0002046FFF7C3FFF00718BF15F072
:10216000010017D1300726D515F0080008BF70BD53
:102170002068416B21F0080141630821C1630120FF
:1021800084F8A100002084F8A0002046BDE870403B
:1021900000F08EB82068416B21F0010141630121FC
:1021A000C16384F8A110002084F8A000204600F04C
:1021B00073F83007D8D470BD002869D010B5044634
:1021C00090F8A10028B9002084F8A000204600F073
:1021D0006BF8022084F8A100D4E9000CD4E90223B2
:1021E000816921F07041816142EA0C012269194341
:1021F00011438269114381614FF600028168CFF279
:10220000000211408160D4E9051343EA014183686B
:1022100019438160C1681140C160D4E9071343EAE2
:102220000141C3681943C160016911400161D4E9EA
:10223000091343EA014103691943016141691140EE
:102240004161D4E90B1242EA014142691143416103
:1022500094F8351094F83620C36A03F07F43C362C4
:10226000120494F8343042EA0121C26A194411433D
:10227000C162416B41F006014163816941F0010196
:1022800081610020C4F8A400012184F8A11010BDD0
:1022900001207047000000007047000000000000AF
:1022A00070470000000000007047000000000000C0
:1022B000704700000000000010B590F8A0304FF00B
:1022C000020C012B34D0342380F8A1C002FB03039D
:1022D0004FF0010C4FF0010E9C6C072C05D846F214
:1022E0000063C0F6000353F824E0036801FB0EF11D
:1022F00003EBC212D2F8B0306FF31C43C2F8B03017
:1023000046F62403C4F201031C6844F001041C6077
:10231000D2F8B04044EA0141C2F8B010196841F067
:102320000101196080F8A1C04FF0000C80F8A0C036
:10233000604610BD0000000010B54EF6A05E41786A
:10234000CEF2000E90F800C04EF8081CDEF8001027
:1023500021F00101CEF8001041684EF8041C017B09
:10236000C37A827A447B1B0643EA0171837B41EA8C
:10237000C241C27B41EA8441447A41EA4341007A46
:1023800041EA024141EA042141EA400040EA0C00EE
:10239000CEF8000010BD00004EF62450CEF2000032
:1023A000BFF35F8F016821F4803101600021016774
:1023B00070470000000000004EF6245140F001007C
:1023C000CEF200010867086840F480300860BFF36F
:1023D0004F8FBFF36F8F7047704700000000000001
:1023E000002848BF7047C1B24EF20012CEF2000280
:1023F00000F01F0042EAD101012221F0030102FA9C
:1024000000F008607047000070B54EF60C5C4FF0AD
:10241000FF36CEF2000C00F1604505F56445DCF8AE
:102420000030C3F3022E8EF00703042B28BF0423D1
:10243000BEF1030406FA03F321EA030100F00F03DF
:1024400038BF0024043B0028634406FA04F048BF68
:1024500003F10C05A14022EA0000084300012870A6
:1024600070BD0000000000004EF60C514FF6FF0357
:10247000CEF200010A681A4060F30A2242F080603E
:1024800040F0FD7008607047B0B582B043F6400080
:1024900047F20005C4F20200C4F20005016841F0F1
:1024A00080510160006800F0805001900198286818
:1024B00040F480302860FFF74FFD04466868C00391
:1024C00006D4FFF749FD001BB0F57A7FF6D910E07E
:1024D000286840F400302860FFF73EFD044600BF46
:1024E0006868800308D4FFF737FD001BB0F57A7FDA
:1024F000F6D9032002B0B0BD002002B0B0BD00008C
:102500002DE9F04782B0D0F800A043F690060446CB
:102510005FEACA70C4F202061AD14FF000095FEAFE
:102520000A3028D556F8040CE16B20F44010B1F5C0
:10253000801F40EA010046F8040CB1FA81F04FEA2E
:10254000501808BF4FF001095FEACA2018D429E0EB
:1025500056F8880C20F4000046F8880C606B56F89A
:10256000881C014346F8881CB0FA80F04FEA5019E5
:102570005FEA0A30D6D44FF000085FEACA2011D5CE
:1025800056F8040C216C20F44000B1F5800F40EAAD
:10259000010008BF4FF00109002908BF4FF00108F2
:1025A00046F8040C5FEA8A6057465CD556F8500C32
:1025B00047F2000740F0805046F8500CC4F2000784
:1025C00056F8500C00F0805001900198386840F4A3
:1025D00080703860FFF7C0FC054600BF3868C00552
:1025E00006D4FFF7B9FC401B6428F7D958E200BFB6
:1025F00056F8200C10F440701BD0216B01F4407190
:10260000884216D056F8200C56F8201C41F4803130
:1026100046F8201C56F8201C20F4407021F480312C
:1026200046F8201C46F8200C56F8200CC00740F055
:102630003B824FF6FF432768206B56F8882CC0F684
:10264000FF7300F4407122F4F81203406FF31F305F
:10265000B1F5407F08BF1A4346F8882C56F8201C75
:10266000084346F8200CF80638D4780444D43804DB
:102670004AD4F80350D4B80356D478065CD438064C
:1026800062D4F80568D4B8056ED4780575D43805D9
:102690007CD4F80400F18380B80400F189807802CA
:1026A00000F18F80B80200F19580780300F1A180DD
:1026B000380200F1A780780100F1AE80380100F106
:1026C000B580F8000AF0807000F1BE80002808BFD5
:1026D000B9F1000F40F0E480C4E000BF56F8040CEC
:1026E00020F0807046F8040CA06B56F8041C0843D8
:1026F00046F8040C7804BAD53068616E20F4403096
:10270000084330603804B4D53068A16E20F440200E
:1027100008433060F803AED53068E16E20F4401015
:1027200008433060B803A8D53068216F20F440001A
:10273000084330607806A2D53068616C20F0030051
:102740000843306038069CD53068A16C20F00C003E
:1027500008433060F80596D53068E16C20F0300011
:1027600008433060B80590D53068216D20F0C00076
:102770000843306078057FF58AAF3068616D20F4DA
:1027800040700843306038057FF583AF3068A16D35
:1027900020F4406008433060F8047FF57DAF306876
:1027A000E16D20F4405008433060B8047FF577AF06
:1027B0003068216E20F440400843306078027FF595
:1027C00071AF3068A16F20F0806008433060B802BC
:1027D0007FF56BAF3068E16F20F00060B1F1006F02
:1027E00040EA010008BF4FF00108306078037FF530
:1027F0005FAF3068616F20F040700843306038028E
:102800007FF559AF3068D4F8801020F0805008432D
:10281000306078017FF552AF3068D4F8841020F032
:1028200000500843306038017FF54BAF56F8040C78
:10283000D4F8881020F00070084346F8040CF80023
:102840000AF080707FF542AF56F8041CD4F88C2053
:1028500021F08061114346F8041C002808BFB9F13B
:10286000000F1DD117F000701AD117F0080008BF33
:10287000B8F1000F00F0A68056F8900C20F08050C0
:1028800046F8900CFFF768FB054600BF56F8900C21
:10289000800029D5FFF760FB401B6428F6D9FFE0D4
:1028A00056F8900C20F0806046F8900CFFF754FB2F
:1028B000054600BF56F8900C000105D5FFF74CFB0C
:1028C000401B6428F6D9EBE02068C10702D0616B99
:1028D00000297BD0010340F18D80E16BB1F5801FB1
:1028E00040F088808CE000BF2068010301D5E16BD7
:1028F00019B1C1021ED5216CE1B956F8081C56F871
:10290000082C01F4403102F0E04263691144A269ED
:1029100041EA8311A76A41EA026146F8081C56F8A9
:10292000041C6FF0FF0221F4F85102EB072211435F
:1029300046F8041C810214D5E16FB1F1006F10D18B
:1029400056F8081C56F8082C01F0706102F0E042BD
:102950006369276A114441EA831141EA074146F855
:10296000081C000718D556F8080C56F8081C00F08B
:10297000706001F4403162690844E16940EA821004
:10298000E36A40EA017046F8080C56F8040C20F49B
:102990004030184346F8040C56F8900C40F0805034
:1029A00046F8900CFFF7D8FA044600BF56F8900C92
:1029B000800007D4FFF7D0FA001B6528F6D3032068
:1029C00084E000BF002002B0BDE8F08756F80C1C80
:1029D00056F80C2C01F4403102F07062D4E9013554
:1029E000114441EA831141EA057146F80C1C0103C8
:1029F0003FF573AFC1021DD5216CB1F5800F19D120
:102A000056F80C1C56F80C2C01F4403102F0E04250
:102A100063681144E26841EA8311656A41EA026130
:102A200046F80C1C56F8041C6A1E21F01F011143C5
:102A300046F8041CC10110D556F80C1C56F80C2C95
:102A400001F0706102F0E04263682569114441EAD7
:102A5000831141EA054146F80C1C80010CD56068E1
:102A6000A368D4E90321090441EA801040EA026026
:102A700040EA037046F80C0C56F8900C40F0806069
:102A800046F8900CFFF768FA054600BF56F8900C20
:102A900000013FF5EAAEFFF75FFA401B6428F5D965
:102AA000032002B0BDE8F087FFF756FA054641F271
:102AB000883700BF56F8200C80073FF5BAADFFF706
:102AC0004BFA401BB8424FF00300F3D902B0BDE807
:102AD000F0870000000000002DE9F041002800F020
:102AE000CF8043F608080446C4F202080D46D8F821
:102AF000F80300F00F0088420DD2D8F8F80320F058
:102B00000F002843C8F8F803D8F8F80300F00F00C6
:102B1000A84240F0B5802068810717D5410705D548
:102B2000D8F8001041F4E051C8F80010010705D5AD
:102B3000D8F8001041F46041C8F80010D8F800102F
:102B4000A26821F0F0011143C8F80010C00725D198
:102B5000D8F8F80300F00F00A8420DD9D8F8F80310
:102B600020F00F002843C8F8F803D8F8F80300F065
:102B70000F00A84240F08480206841071AD4000763
:102B800022D4D8F8000000F00C0008282BD004282C
:102B90004CD147F64000C0F27D104BE0606802283F
:102BA00062D0012868D158F8081C89036CD4012030
:102BB000BDE8F081D8F80010E26821F4E05111433B
:102BC000C8F800100007DCD5D8F80000216920F40F
:102BD000604040EAC100C8F80000D8F8000000F0EA
:102BE0000C000828D3D158F8042C58F8040C4002E3
:102BF00047F6400058F8041CC0F27D105CBF42F25A
:102C00000040C0F2F400C1F3881102F03F02A0FBC3
:102C100001010023FDF70CFB58F8041C0222C1F34C
:102C2000014102EB4101B0FBF1F003E042F2004050
:102C3000C0F2F400D8F8001043F6E662C0F60002D5
:102C4000C1F30311515C40F22402C2F20002C840F9
:102C500040F24401C2F2000108601068FFF7ACF9CD
:102C60000020BDE8F08100BF58F8081C89010BD492
:102C70000120BDE8F08100BF58F8081C890703D483
:102C80000120BDE8F08100BFD8F8001021F0030159
:102C90000843C8F80000FFF75FF9064641F288379D
:102CA000D8F80000616800F00C00B0EB810F3FF431
:102CB0004FAFFFF751F9801BB842F1D90320BDE8AF
:102CC000F0810000000000002DE9F04182B00028F2
:102CD0006ED00446007843F60006C007C4F2020630
:102CE0000BD0B06800F00C00042840F09F803068E2
:102CF000800302D5606800285AD0207880071AD552
:102D0000B06810F00C0F09D0B06800F00C00082873
:102D100040F0AA807068400200F1A6803068800709
:102D200002D5E068012843D13068216920F0F8001D
:102D300040EAC1003060207800073DD42078400789
:102D40004ED4A56985B3B06800F00C00082840F0A7
:102D5000BF80012D70682BD000F48001E2699142A0
:102D600026D100F03F01226A914221D147F6C0717D
:102D7000626A0140B1EB821F1AD1A16A4FF6FF725D
:102D8000C903914300F44032A1F580318A420FD14A
:102D9000E16A00F07062B2EB016F09D1216B00F0C3
:102DA000E040B0EB017F03D1002002B0BDE8F0812C
:102DB000012002B0BDE8F08160690028706F77D013
:102DC00040F001007067FFF7C7F80546706F800795
:102DD000B4D4FFF7C1F8401B0228F7D915E100BFB2
:102DE000306C10F0805808D1306C40F08050306466
:102DF000306C00F080500190019847F20007C4F257
:102E000000073868C00543D4386840F480703860E3
:102E1000FFF7A2F8054600BF3868C00538D4FFF7B1
:102E20009BF8401B6428F7D9EFE000BFB06800F0C2
:102E30000C00082803D1706840023FF558AF606865
:102E4000002800F0B580B0F5A02F00F0C980B0F5E3
:102E5000803F00F0C980306820F4803030603068F6
:102E600020F48020C3E000BFE0680028306851D023
:102E700040F001003060FFF76FF8054630688007CA
:102E80003FF552AFFFF768F8401B0228F6D9BCE0C7
:102E9000A068002850D0052868D001286AD0306F7B
:102EA00020F001003067306F20F0040065E000BFC3
:102EB00020F001007067FFF74FF80546706F80073C
:102EC0007FF53CAFFFF748F8401B0228F6D99CE09D
:102ED000306820F080703060FFF73EF8022D054624
:102EE0000CD100BF3068800140F19480FFF734F8C6
:102EF000401B02284FF00300F4D956E730688001E8
:102F00007FF552AFFFF728F8401B02284FF003006F
:102F1000F4D94AE720F001003060FFF71DF80546BC
:102F2000306880077FF507AFFFF716F8401B0228CF
:102F30004FF00300F4D938E7306F20F0010030671C
:102F4000306F20F004003067FFF706F8054641F2C5
:102F5000883700BF306F800720D5FEF7FDFF401B8C
:102F6000B8424FF00300F5D91FE700BF306F40F0C3
:102F700004003067306F40F001003067FEF7ECFF6F
:102F8000054641F2883700BF306F800706D4FEF750
:102F9000E3FF401BB842F7D937E000BFB8F1000F9C
:102FA0007FF4CFAE306C20F080503064C9E600BFB3
:102FB000306820F480303060306820F48020306049
:102FC000FEF7CAFF054600BF306880037FF595AE67
:102FD000FEF7C2FF401B64284FF00300F4D9E4E67B
:102FE000306840F480203060306840F480303060D9
:102FF000FEF7B2FF054600BF306880033FF57DAEA7
:10300000FEF7AAFF401B6428F6D9032002B0BDE8F2
:10301000F08100BF04F11C07256B8FCF0843D90353
:103020004FF6FF7340EA8210994340EA0760A1F52A
:103030008031084340EA05707060306840F080706D
:103040003060FEF789FF0446306880013FF5ACAE82
:10305000FEF782FF001B02284FF00300F4D9A4E61C
:10306000E0B1B0B5044690F82C000D4628B9002018
:1030700084F82D00204600F013F8022084F82C007C
:103080002068211DFDF7D8FDD4E900022946FDF78F
:1030900043FE012084F82C000020B0BD01207047C1
:1030A0007047000000000000B0B5054690F82C0005
:1030B000022801D10220B0BD95F82C00012401287E
:1030C00008D1022085F82C002868FDF701FE85F85C
:1030D0002C4000242046B0BD70B5054690F82C0069
:1030E000022801D1022070BD00F0FB00012401285C
:1030F0000DD1022085F82C0028680E46FDF7F4FD5E
:103100003068022808BF052485F82C40002420469A
:1031100070BD000000000000411E0020B0EB116FE8
:1031200002D00120704700BF4EF21002F023CEF211
:10313000000251604EF62351CEF200010B700721C0
:103140009060116070470000FEE700000000000082
:1031500040F2FC20C2F20000FEF7C6BF00000000F3
:1031600040F2FC20C2F20000FEF7BEBF00000000EB
:10317000F0B500680027D1E900CE00EBC212C0F61E
:10318000FF77D1E90234C568D2F8886006F470464A
:10319000C2F88860C6683D4005EB0E45C6F30B4695
:1031A000664401363543C2F88850C568D2F88C6051
:1031B0006FF3DF2506F47046C2F88C602C44C068BB
:1031C0006FF3DF201844013040EA0440C2F88C005D
:1031D000D2F8940020F00700C2F894000B69C2F8FE
:1031E000943091F83200072B91F831404FEA0040BB
:1031F0008D69D2F89C604FF00006C2F89C6040EAEE
:10320000042091F8307040EA056040F207743844B9
:10321000C2F89C00D2F8980020F0FF00C2F8980095
:103220004869C2F89800D2F8A00020EA0400C2F869
:10323000A000D1E9070440EA0400C2F8A00002F1AE
:103240008400D2F8AC40C2F8AC604C6AC2F8AC4022
:1032500006D846F20062C0F6000252F8232000E0D1
:103260000122C36AAEEB0C0703F0E023C3628B6A52
:10327000C96A53437A43033242EA0342C262026B91
:1032800040F2FF739A4302630163016841F0010158
:103290000160F0BD00000000FEE70000000000003B
:1032A0007047000000000000FEF766BD000000004F
:1032B0002DE9F04F83B046F2985BC0F6000BCDE9E4
:1032C000010100205946FDF783FC41F228610320EB
:1032D000C0F60501FDF77CFC46F2AE570020C0F6B3
:1032E00000073946FDF774FC41F2AE610220C0F6DA
:1032F0000501FDF76DFC00203946FDF769FC46F23B
:10330000C4510020C0F60001FDF762FC0A20FFF75F
:10331000CBFF46F2DA510020C0F60001FDF758FC61
:1033200046F2F0510020C0F60001FDF751FC0A20E2
:10333000FFF7BAFF46F2F6510020C0F60001FDF794
:1033400047FC46F2F8510020C0F60001FDF740FCB2
:1033500046F2FA510020C0F60001FDF739FC46F2B2
:10336000FC550020C0F600052946FDF731FC46F269
:103370009A510020C0F60001FDF72AFC46F29C514C
:103380000020C0F60001FDF723FC00205946FDF7A0
:103390001FFC46F29E510020C0F60001FDF718FC0C
:1033A00046F2A05A0020C0F6000A5146FDF710FC74
:1033B00046F2A2510020C0F60001FDF709FC46F2DA
:1033C000A4540020C0F600042146FDF701FC46F29B
:1033D000A6510020C0F60001FDF7FAFB46F2A85105
:1033E0000020C0F60001FDF7F3FB46F2AA510020D1
:1033F000C0F60001FDF7ECFB46F2AC510020C0F630
:103400000001FDF7E5FB00202946FDF7E1FB002068
:103410005946FDF7DDFB41F22C710220C0F6050193
:10342000FDF7D6FB46F2B0510020C0F60001FDF7D3
:10343000CFFB46F2B2510020C0F60001FDF7C8FBF9
:1034400046F2B4510020C0F60001FDF7C1FB46F280
:10345000B6510020C0F60001FDF7BAFB46F2B851A4
:103460000020C0F60001FDF7B3FB46F2BA51002080
:10347000C0F60001FDF7ACFB00205146FDF7A8FBAC
:1034800046F2BC510020C0F60001FDF7A1FB002070
:103490002146FDF79DFB46F2BE510020C0F600011B
:1034A000FDF796FB46F2C0510020C0F60001FDF783
:1034B0008FFB41F22F710220C0F60501FDF788FB5A
:1034C00000203946FDF784FB41F232710620C0F638
:1034D0000501FDF77DFB46F2C2550020C0F6000550
:1034E0002946FDF775FB41F239710E20C0F6050142
:1034F000FDF76EFB46F2C6540020C0F600042146DC
:10350000FDF766FB41F248710E20C0F60501FDF79C
:103510005FFB46F2C8560020C0F600063146FDF7B4
:1035200057FB41F22C610A20C0F60501FDF750FB64
:1035300046F2CA580020C0F600084146FDF748FB95
:1035400046F2E8510020C0F60001FDF741FB0020E3
:103550003946FDF73DFB41F237610A20C0F605010F
:10356000FDF736FB46F2CC590020C0F6000949466B
:10357000FDF72EFB41F242610F20C0F60501FDF779
:1035800027FB00202946FDF723FB41F252610F2063
:10359000C0F60501FDF71CFB00202146FDF718FBD6
:1035A00041F262610A20C0F60501FDF711FB00201F
:1035B0003146FDF70DFB41F26D610F20C0F60501AC
:1035C000FDF706FB00204146FDF702FB41F27D615D
:1035D0000F20C0F60501FDF7FBFA46F2CE510020A0
:1035E000C0F60001FDF7F4FA41F28D610A20C0F641
:1035F0000501FDF7EDFA46F2D0510020C0F60001BA
:10360000FDF7E6FA41F298610A20C0F60501FDF7E0
:10361000DFFA00203946FDF7DBFA41F2A3610A2008
:10362000C0F60501FDF7D4FA00204946FDF7D0FAAF
:1036300041F2B1610F20C0F60501FDF7C9FA002083
:103640002946FDF7C5FA41F2C1610F20C0F6050118
:10365000FDF7BEFA00202146FDF7BAFA41F2D1612A
:103660000A20C0F60501FDF7B3FA00203146FDF748
:10367000AFFA41F2DC610F20C0F60501FDF7A8FAB0
:1036800000204146FDF7A4FA41F2EC610F20C0F69C
:103690000501FDF79DFA00205146FDF799FA46F223
:1036A000EA510020C0F60001FDF792FA46F2EC5113
:1036B0000020C0F60001FDF78BFA46F2EE51002023
:1036C000C0F60001FDF784FA46F2F2510020C0F680
:1036D0000001FDF77DFA46F2F4510020C0F600012A
:1036E000FDF776FA00205946FDF772FA41F2FC61C7
:1036F0000320C0F60501FDF76BFA00205946FDF7DF
:1037000067FA00205946FDF763FA41F20A7110206A
:10371000C0F60501FDF75CFA00205946FDF758FA9E
:1037200041F21B711020C0F60501FDF751FA46F277
:10373000D2510020C0F60001FDF74AFA7820FFF7C9
:10374000B3FD0198022805D058B946F2D651C0F60B
:10375000000103E046F2D451C0F600010020FDF75D
:1037600037FA0298012814D146F2D8510020C0F649
:103770000001FDF72DFA41F200710420C0F60501A9
:10378000FDF726FA41F205710420C0F60501FDF7A8
:103790001FFA46F2DC510020C0F60001FDF718FACE
:1037A00046F2DE510020C0F60001FDF711FA46F2A4
:1037B000E0510020C0F60001FDF70AFA46F2E2519E
:1037C0000020C0F60001FDF703FA46F2E4510020A4
:1037D000C0F60001FDF7FCF946F298510020C0F652
:1037E0000001FDF7F5F946F2E6510020C0F60001B0
:1037F000FDF7EEF9002003B0BDE8F08F00000000F7
:10380000704700000000000070470000000000004A
:10381000FEF7AABB000000004EF688504FF0000CE7
:10382000CEF20000016841F47001016043F600012E
:10383000C4F202010A6842F001020A60C1F808C03D
:103840004FF6FF720B68CFF6F6621A400A6043F239
:103850001002C2F200424A600A6822F480220A6022
:10386000C1F80CC04FF0006140F8801C70470000A8
:10387000FEE700000000000096B04EF66075CEF244
:103880000005FEF789FD09AC0120ADF824001F20DA
:103890008DF82C008720ADF82D00204600260A96D2
:1038A0008DF82F6040F201170C97FEF745FD4FF0A1
:1038B00040400A9018208DF82C004FF480300C9076
:1038C0002046ADF8247003278DF82F70ADF82D60D9
:1038D000FEF732FD40F20120ADF824004FF0204009
:1038E0000A900C208DF82C0040F201108DF82F70FA
:1038F000C0F200100C902046ADF82D60FEF71CFDC4
:103900000420FEF759FD4FF6B451CFF6FF71685809
:10391000800311D4BFF34F8FBFF36F8F45F8106C46
:10392000BFF34F8FBFF36F8F685840F4003068507B
:10393000BFF34F8FBFF36F8F6858C00360D44FF64B
:1039400024600021CFF6FF70012343F6E07B29506D
:103950004FF62060CFF6FF70BFF34F8F2858C20894
:10396000C0F3C906C0F34E31771E03EBD000A6F1B9
:10397000020A930700F003004FEA87794FEA8A7240
:103980000392F21E029203E00029A1F1010129D065
:103990000BEA4114324678B1012843EA04022A6056
:1039A0003A4609D0022849EA04022A60524603D066
:1039B000039A22432A60029A032EE5D344EA8274D2
:1039C000013204F1404C84F0004E04F1804800BF05
:1039D000043A2C60C5F800C0C5F800E0C5F80080C6
:1039E000F6D1D1E74FF6B451CFF6FF71BFF34F8F49
:1039F000685840F480306850BFF34F8FBFF36F8F2B
:103A0000FEF7C2FA012009904FF480300A9002209C
:103A10000F904FF480011091192111914FF4C8714A
:103A2000CDE91210092014900720159009A8FFF77E
:103A30004BF908B1FEE700BFFEF726FD10B100BF4D
:103A4000FEE700BF0F2004904FF4A050079004A899
:103A500007214FF00208CDF814804FF0000ACDF88E
:103A600018A04FF480560896FFF736F810B100BF43
:103A7000FEE700BF4BF2000B0020C4F2020BFCF784
:103A80003BFFFCF75DFFFCF7D7FEFCF77DFE40F245
:103A9000BC100821C2F200000525016040F2A1110E
:103AA0004161C561C0F82CA0FEF72AFD40F2CC09A7
:103AB000ABF5A230C2F20009C9F800004846FDF794
:103AC0009BFD40F2E8046420C2F200040127214675
:103AD000C9F80C70C4E9035A41F8080F0420C9F86A
:103AE00008004846FDF708FF21464FF4C870C4E9B6
:103AF000070A402041F814AFC4E90E074846A56103
:103B0000C4E909AAC4E90BAAC4F834A0FDF760FC13
:103B100025464FF4807045F8400F4FF40070606404
:103B20004FF48060A0644FF40060C4E913064FF4C2
:103B3000005060654FF48040A0654FF48030E06530
:103B40004FF4003020664FF4802060664FF4002070
:103B5000A06648462946FDF7B3FC40F2FC26C2F2B7
:103B600000063046FEF788FA4FF4C97070624FF4D1
:103B7000F170B06240F29310F06240F2E3103063F3
:103B8000ABF5A430C6F82080C6E9000A3046A6F896
:103B900034A086F836A0C6E902AAC6E904A7C6E999
:103BA0000678FEF709FB4846FEF7BEF8232009A970
:103BB000CDE90900CDE90B000A200E904846CDF86A
:103BC00034A0FDF7D9FC77200121FFF771FB2C21F0
:103BD0002846FCF765FB48462946FDF771FC0421A1
:103BE0004846FDF7B5FC0021152228234846CDF8AC
:103BF00000A0FEF765F84846FEF74EF8CDF824A081
:103C0000FCF7B2FD4008CDE90A0AFCF7B5FDCDE9A5
:103C10000C0A4FF040401290FF27ADF854A0CDE9B8
:103C20000E7A8DF856A04FF4C060109007201190C6
:103C3000FCF79AFD40081390FCF79EFD149009A92B
:103C400000223046FEF7DCF90020FCF729FE40F2A6
:103C5000280B2A20C2F2000B0090002139220423F5
:103C60000BF1020001904846FDF746FF2B20009023
:103C70000021392204230BF10A0001904846FDF788
:103C80003BFFFCF771FD014600223046FEF714FBB6
:103C900040F21800C2F20000FCF716FEFF25CFF636
:103CA00000752846FCF71CFE002000214FF44872E6
:103CB0007023FCF701FD4FF0FF30FCF711FE0020F0
:103CC00070214FF448724FF4B873FCF7F5FC2846A6
:103CD000FCF7EEFD66A10120FCF7A2FC40F23C00DF
:103CE000C2F20000FCF7F0FD4CF258710420C0F65F
:103CF0000901FCF795FC68A10520FCF791FC40F256
:103D00004C252668C2F20005701C20604BF20000B2
:103D1000C4F20200C5F808A0C5E9000A28464FF41D
:103D2000F079C5E90EAAC5E910A7C5E912AAC5E947
:103D3000039AC5E905AAFDF7B7F818BB40F24C2075
:103D40000121C2F20000FDF757F8D8B946F29050B1
:103D5000F022C0F6000000924DF2C0324FF4A07382
:103D600050F8261040F24C20C2F20000CCF20702BC
:103D7000FDF7C6F930B940F24C206421C2F20000D0
:103D8000FDF7CAF840F2CC060120C2F200066060DE
:103D900000213922022330464FF0000ACBF810A050
:103DA00044270097CDF804B0FDF7A6FE00211522A8
:103DB00029233046CDF800A0FDF782FF16E000BFB2
:103DC0002068002102284FF0010028BFC4F800A09D
:103DD000CBF810003922022330460097CDF804B00A
:103DE000FDF78AFE4FF4FA60FDF7C6FFDBF810001E
:103DF000B0F1FF3FF6DCD4F80080C5F840A008F130
:103E000001002060FF20C5F84CA0C5E9110A4BF263
:103E10000000C5F818A0C4F20200C5E9000A28464F
:103E2000C5E90EAAC5E902A9C5E904AAFDF73CF84F
:103E30000028C5D101212846FCF7DEFF0028BFD1AC
:103E400046F290504DF2C032C0F600004FF4A0731D
:103E5000CCF2070250F82810F02000902846FDF719
:103E60004FF90028ACD164212846FDF755F8A7E7A3
:103E700020202020202020204C43445F4453495FD1
:103E8000436D644D6F64655F5061727469616C521B
:103E900065667265736800005265667265736820B6
:103EA0006D6574686F642062792073706C697474D6
:103EB000696E672074686520646973706C6179202D
:103EC000617265612E00000002E008C8121F08C17F
:103ED000002AFAD170477047002001E001C1121F8B
:103EE000002AFBD170470000000000000000010222
:103EF000030406070809000000000000000000009D
:103F000000000000000000000000000000000000B1
:103F100000000000000000000C000C000C000C0071
:103F20000C000C000C000C0000000C000000000055
:103F3000000000000000000000001DC01DC008803F
:103F40000880088000000000000000000000000061
:103F500000000000000000000D800D800D800D802D
:103F60003FC01B003FC01B001B001B001B000000CC
:103F700000000000000004001F8031803180380004
:103F80001E000F000380318031803F0004000400D8
:103F9000000000000000000018002400240018C0E9
:103FA00007801E00318002400240018000000000B6
:103FB000000000000000000000000F0018001800C2
:103FC00018000C001D80370033001D800000000029
:103FD00000000000000000000000070007000200D1
:103FE00002000200000000000000000000000000CD
:103FF00000000000000000000300030006000E00A7
:104000000C000C000C000C000E0006000300030066
:104010000000000000000000180018000C0006005E
:10402000060006000600060006000C001C00180032
:104030000000000000000000060006003FC03FC076
:104040000F001F8019800000000000000000000029
:104050000000000000000000000000000400040058
:1040600004003F8004000400040000000000000081
:104070000000000000000000000000000000000040
:104080000000000000000000060004000C00080012
:104090000800000000000000000000000000000018
:1040A00000003F8000000000000000000000000051
:1040B0000000000000000000000000000000000000
:1040C00000000000000000000C000C0000000000D8
:1040D00000000000000000C000C00180018003005B
:1040E000030006000C000C0018001800300030001F
:1040F00000000000000000000E001B003180318035
:1041000031803180318031801B000E0000000000C2
:10411000000000000000000006003E00060006004F
:10412000060006000600060006003FC00000000072
:1041300000000000000000000F0019803180318075
:10414000030006000C00180030003F800000000053
:1041500000000000000000003F00618001800300BB
:104160001F0003800180018061803F00000000008B
:104170000000000000000000070007000F000B0017
:104180001B00130033003F8003000F80000000007D
:1041900000000000000000001F8018001800180038
:1041A0001F0011800180018021801F00000000009D
:1041B000000000000000000007801C001800300014
:1041C000370039803180318019800F0000000000F5
:1041D00000000000000000007F0043000300060014
:1041E0000600060006000C000C000C000000000099
:1041F00000000000000000001F003180318031808D
:104200001F0031803180318031801F0000000000AC
:1042100000000000000000001E00330031803180EB
:1042200033801D800180030007003C000000000077
:1042300000000000000000000000000000000C0072
:104240000C000000000000000C000C00000000004A
:10425000000000000000000000000000000003005B
:104260000300000000000000060004000800080031
:104270000000000000000000000000C00300040077
:104280001800600018000400030000C000000000D7
:10429000000000000000000000000000000000001E
:1042A0007FC000007FC00000000000000000000090
:1042B0000000000000000000000060001800040082
:1042C000030000C0030004001800600000000000AC
:1042D000000000000000000000001F00318031805D
:1042E000018007000C000C0000000C000000000022
:1042F00000000000000000000E001100210021005D
:104300002700290029002700200011000E000000CE
:10431000000000000000000000003F000F00090046
:10432000198019801F8030C030C079E00000000083
:10433000000000000000000000007F00318031809C
:1043400031803F003180318031807F0000000000EB
:10435000000000000000000000001F4030C060406E
:10436000600060006000604030801F0000000000BE
:10437000000000000000000000007F00318030C01D
:1043800030C030C030C030C031807F00000000003D
:10439000000000000000000000007F8030803080BE
:1043A00032003E003200308030807F80000000000C
:1043B000000000000000000000007FC030403040DE
:1043C00032003E003200300030007C00000000006F
:1043D000000000000000000000001E8031806080AE
:1043E0006000600067C0618031801F000000000035
:1043F000000000000000000000007BC03180318020
:1044000031803F803180318031807BC000000000EE
:10441000000000000000000000003FC00600060091
:10442000060006000600060006003FC0000000006F
:10443000000000000000000000001FC00300030097
:10444000030003006300630063003E0000000000FF
:10445000000000000000000000007BC0318033003D
:1044600036003C003E003300318079C0000000007F
:10447000000000000000000000007E00180018008E
:10448000180018001840184018407FC000000000B5
:1044900000000000000000000000E0E060C071C00B
:1044A0007BC06AC06EC064C060C0FBE0000000005A
:1044B0000000000000000000000073C0318039805F
:1044C0003D80358037803380318079800000000066
:1044D000000000000000000000001F00318060C0EC
:1044E00060C060C060C060C031801F00000000007C
:1044F000000000000000000000007F0031803180DB
:10450000318031803F00300030007E00000000002C
:10451000000000000000000000001F00318060C0AB
:1045200060C060C060C060C031801F000CC01F80D0
:10453000000000000000000000007F00318031809A
:1045400031803E003300318031807CE0000000008B
:10455000000000000000000000001F80318031805A
:1045600038001F000380318031803F0000000000D0
:10457000000000000000000000007F804C804C80A4
:104580004C800C000C000C000C003F0000000000F0
:10459000000000000000000000007BC0318031807E
:1045A000318031803180318031801F000000000077
:1045B000000000000000000000007BC0318031805E
:1045C0001B001B001B000A000E000E000000000074
:1045D00000000000000000000000FBE060C064C0BC
:1045E0006EC06EC02A803B803B803180000000009E
:1045F000000000000000000000007BC031801B00B4
:104600000E000E000E001B0031807BC00000000079
:104610000000000000000000000079E030C01980B8
:104620000F0006000600060006001F8000000000C4
:10463000000000000000000000003F8021802300F7
:10464000060004000C00188030803F80000000004D
:1046500000000000000000000780060006000600C1
:104660000600060006000600060006000600078099
:1046700000000000000030003000180018000C009E
:104680000C000600030003000180018000C000C090
:1046900000000000000000001E00060006000600EA
:1046A00006000600060006000600060006001E00C2
:1046B00000000000000004000A000A001100208031
:1046C000208000000000000000000000000000004A
:1046D00000000000000000000000000000000000DA
:1046E00000000000000000000000000000000000CA
:1046F00000000000FFE008000400020000000000CD
:1047000000000000000000000000000000000000A9
:1047100000000000000000000000000000001F007A
:10472000018001801F80318033801DC000000000A7
:104730000000000000000000700030003000370072
:10474000398030C030C030C03980770000000000B0
:1047500000000000000000000000000000001E80BB
:10476000318060806000608031801F0000000000A8
:1047700000000000000000000380018001801D8017
:10478000338061806180618033801DC00000000043
:1047900000000000000000000000000000001F00FA
:1047A000318060C07FC0600030C01F80000000000A
:1047B000000000000000000007E00C000C003F803B
:1047C0000C000C000C000C000C003F8000000000EE
:1047D00000000000000000000000000000001DC0FC
:1047E000338061806180618033801D800180018021
:1047F0001F00000000000000700030003000370093
:10480000398031803180318031807BC000000000F0
:1048100000000000000000000600060000001E006E
:10482000060006000600060006003FC0000000006B
:1048300000000000000000000600060000003F002D
:104840000300030003000300030003000300030050
:104850003E00000000000000700030003000378093
:1048600036003C003C003600330077C000000000FA
:1048700000000000000000001E0006000600060008
:10488000060006000600060006003FC0000000000B
:1048900000000000000000000000000000007F8019
:1048A00036C036C036C036C036C076E000000000E4
:1048B0000000000000000000000000000000770081
:1048C000398031803180318031807BC00000000030
:1048D00000000000000000000000000000001F00B9
:1048E000318060C060C060C031801F0000000000E7
:1048F0000000000000000000000000000000770041
:10490000398030C030C030C03980370030003000CE
:104910007C000000000000000000000000001DC03E
:10492000338061806180618033801D8001800180DF
:1049300007C00000000000000000000000007B80B5
:104940001CC018001800180018007F0000000000AC
:1049500000000000000000000000000000001F80B8
:1049600031803C001F00038031803F0000000000C8
:1049700000000000000000001800180018007F0070
:10498000180018001800180018800F000000000020
:104990000000000000000000000000000000738024
:1049A000318031803180318033801DC000000000B3
:1049B00000000000000000000000000000007BC0BC
:1049C000318031801B001B000E000E000000000033
:1049D0000000000000000000000000000000F1E006
:1049E00060C064C06EC03B803B803180000000002E
:1049F00000000000000000000000000000007BC07C
:104A00001B000E000E000E001B007BC0000000000B
:104A1000000000000000000000000000000079E03D
:104A200030C0198019800B000F00060006000C0032
:104A30003E000000000000000000000000003F8079
:104A4000218003000E00180030803F80000000002D
:104A5000000000000000000006000C000C000C002C
:104A60000C000C0018000C000C000C000C000600E0
:104A7000000000000000000006000600060006001E
:104A800006000600060006000600060006000600F6
:104A900000000000000000000C00060006000600F8
:104AA00006000600030006000600060006000C00D3
:104AB00000000000000000000000000000000000F6
:104AC0001800248003000000000000000000000027
:104AD00000000000000000000000000000000000D6
:104AE00000000000000000000000000000000000C6
:104AF00000000000000000000000000000000000B6
:104B000000000000000000000000000000000000A5
:104B10000000000000000000000000000000000095
:104B20000000000003800003800003800003800079
:104B300003800003800003800003800003800001E5
:104B4000000001000000000000000003800003805E
:104B50000000000000000000000000000000000055
:104B60000000000000000000000000000000000E37
:104B700070000E70000E700004200004200004205D
:104B80000004200000000000000000000000000001
:104B90000000000000000000000000000000000015
:104BA0000000000000000000000000000000000005
:104BB000000000000660000660000660000660005D
:104BC0000660003FF8003FF8000660000CC0003FA0
:104BD000F8003FF8000CC0000CC0000CC0000CC076
:104BE000000CC000000000000000000000000000F9
:104BF00000000000000000000001800001800007AC
:104C0000B0000FF0001870001870001C00000F803A
:104C10000007E00000F0001830001C30001C70009D
:104C20001FE0001BC0000180000180000180000126
:104C300080000000000000000000000000000000F4
:104C4000000000000780000FC0001CE0001860009A
:104C50001860001CE0000FF80007E0001FF00007DC
:104C6000380006180006180007380003F00001E0BD
:104C70000000000000000000000000000000000034
:104C80000000000000000000000000000000000024
:104C9000000003F00007F0000C60000C00000C00A6
:104CA000000600000700000F9C001DFC0018F0002B
:104CB0001870000FFC0007DC00000000000000007E
:104CC00000000000000000000000000000000000E4
:104CD000000000000000000380000380000380004B
:104CE00001000001000001000001000000000000C0
:104CF00000000000000000000000000000000000B4
:104D000000000000000000000000000000000000A3
:104D1000000000000000000000000000001800007B
:104D2000380000700000F00000E00000E00001C06A
:104D30000001C00001C00001C00001C00001C000AE
:104D400000E00000E000007000007000003800008B
:104D5000180000000000000000000000000000003B
:104D6000000000001800001C00000E00000E0000F3
:104D70000700000700000380000380000380000399
:104D800080000380000380000700000700000F0080
:104D9000000E00001C0000180000000000000000D1
:104DA0000000000000000000000000000180000181
:104DB00080000180001DB8001FF80007E00003C05C
:104DC0000003C00006600006600000000000000054
:104DD00000000000000000000000000000000000D3
:104DE00000000000000000000000000000000000C3
:104DF00000000000000000000000018000018000B1
:104E00000180000180000180003FFC003FFC0001A8
:104E1000800001800001800001800001800000000E
:104E20000000000000000000000000000000000082
:104E30000000000000000000000000000000000072
:104E40000000000000000000000000000000000062
:104E50000000000000000000000000000000000052
:104E600000E00000C00001C00001800001800003DC
:104E7000000003000000000000000000000000002F
:104E80000000000000000000000000000000000022
:104E90000000000000000000001FF8001FF80000E4
:104EA0000000000000000000000000000000000002
:104EB00000000000000000000000000000000000F2
:104EC00000000000000000000000000000000000E2
:104ED00000000000000000000000000000000000D2
:104EE00000000000000000000000000000000000C2
:104EF00003C00003C00003C0000000000000000069
:104F00000000000000000000000000000000001889
:104F10000000180000380000300000700000600041
:104F200000600000C00000C000018000018000039C
:104F300000000300000600000600000E00000C0048
:104F4000001C000018000018000000000000000015
:104F500000000000000000000000000003C0000787
:104F6000E0000C30000C3000181800181800181859
:104F7000001818001818001818001818000C300035
:104F80000C300007E00003C000000000000000003B
:104F90000000000000000000000000000000000011
:104FA000000000000080000780001F80001D8000BE
:104FB000018000018000018000018000018000016B
:104FC00080000180000180000180001FF8001FF8B0
:104FD00000000000000000000000000000000000D1
:104FE00000000000000000000000000007C0001FDB
:104FF000F000383000301800301800001800003081
:105000000000600001C0000380000600000C0000EA
:105010001800003FF8003FF800000000000000000A
:105020000000000000000000000000000000000080
:105030000000000003C0000FE0000C700000300012
:1050400000300000600003C00003E00000700000BA
:1050500018000018000018001838001FF0000FC0DA
:105060000000000000000000000000000000000040
:1050700000000000000000000000000000E000014F
:10508000E00001E0000360000660000660000C60C4
:10509000000C60001860003060003FF8003FF8002E
:1050A00000600003F80003F80000000000000000AA
:1050B00000000000000000000000000000000000F0
:1050C000000000001FF0001FF00018000018000092
:1050D0001800001BC0001FF0001C3000001800006A
:1050E00018000018000018003030003FF0000FC01A
:1050F00000000000000000000000000000000000B0
:1051000000000000000000000000000000F80003A4
:10511000F8000700000E00000C00001800001BC083
:10512000001FF0001C300018180018180018180094
:105130000C38000FF00003E0000000000000000049
:10514000000000000000000000000000000000005F
:10515000000000001FF8001FF800181800183800A1
:1051600000300000300000700000600000600000AF
:10517000E00000C00000C00001C00001800001800C
:10518000000000000000000000000000000000001F
:1051900000000000000000000000000007E0000F19
:1051A000F0001C38001818001818000C300007E038
:1051B0000007E0000C30001818001818001818003C
:1051C0001C38000FF00007E00000000000000000A5
:1051D00000000000000000000000000000000000CF
:1051E0000000000007C0000FF0001C30001818007D
:1051F0001818001818000C38000FF80003D8000029
:10520000180000300000700000E0001FC0001F0008
:10521000000000000000000000000000000000008E
:10522000000000000000000000000000000000007E
:10523000000000000000000003C00003C00003C025
:10524000000000000000000000000000000000005E
:1052500003C00003C00003C0000000000000000005
:10526000000000000000000000000000000000003E
:10527000000000000000000000000000000000002E
:1052800000F00000F00000F000000000000000004E
:10529000000000000000E00001C00001800001806B
:1052A00000030000020000000000000000000000F9
:1052B00000000000000000000000000000000000EE
:1052C0000000001C00003C0000F00003C0000F00C4
:1052D000003C0000F000003C00000F000003C00094
:1052E00000F000003C00001C000000000000000076
:1052F00000000000000000000000000000000000AE
:10530000000000000000000000000000000000009D
:105310000000007FFC007FFC000000000000007F18
:10532000FC007FFC00000000000000000000000006
:10533000000000000000000000000000000000006D
:10534000000000000000000000000000000000005D
:1053500000007000007800001E000007800001E0DF
:1053600000007800001E0000780001E000078000C7
:105370001E00007800007000000000000000000027
:10538000000000000000000000000000000000001D
:105390000000000000000007C0000FE000187000CF
:1053A00018300018300000700000E00003C0000357
:1053B000800003000000000000000007000007005C
:1053C00000000000000000000000000000000000DD
:1053D00000000000000000000000000003E00007E3
:1053E000F0000E38000C180018780018F80019D8D2
:1053F0000019980019980019980018F800187800FA
:105400001800000C00000E180007F80003E0000070
:10541000000000000000000000000000000000008C
:10542000000000000000001F80001FC00001C0003D
:105430000360000360000630000630000C30000FEF
:10544000F8001FF800180C00300C00FC7F00FC7FF7
:10545000000000000000000000000000000000004C
:105460000000000000000000000000000000007FBD
:10547000E0007FF0001838001818001818001838DD
:10548000001FF0001FF800181C00180C00180C007A
:10549000180C007FF8007FF0000000000000000002
:1054A00000000000000000000000000000000000FC
:1054B0000000000000000003EC000FFC001C1C00BA
:1054C000180C00300C0030000030000030000030BC
:1054D0000000300000180C001C1C000FF80003F046
:1054E00000000000000000000000000000000000BC
:1054F0000000000000000000000000000000007F2D
:10550000C0007FF000183800181800180C00180CA4
:1055100000180C00180C00180C00180C00181800CB
:105520001838007FF0007FE000000000000000005D
:10553000000000000000000000000000000000006B
:10554000000000000000007FF8007FF8001818003D
:105550001818001998001980001F80001F8000197A
:1055600080001998001818001818007FF8007FF8BC
:10557000000000000000000000000000000000002B
:105580000000000000000000000000000000003FDC
:10559000FC003FFC000C0C000C0C000CCC000CC000
:1055A000000FC0000FC0000CC0000CC0000C0000B9
:1055B0000C00003FC0003FC00000000000000000E1
:1055C00000000000000000000000000000000000DB
:1055D0000000000000000003EC000FFC001C1C0099
:1055E000180C00300C0030000030000030FE00309D
:1055F000FE00300C00380C001C1C000FFC0003F0F7
:10560000000000000000000000000000000000009A
:105610000000000000000000000000000000007E0C
:105620007E007E7E00181800181800181800181840
:10563000001FF8001FF800181800181800181800AC
:105640001818007E7E007E7E000000000000000032
:10565000000000000000000000000000000000004A
:10566000000000000000001FF8001FF8000180008B
:1056700001800001800001800001800001800001A4
:1056800080000180000180000180001FF8001FF8E9
:10569000000000000000000000000000000000000A
:1056A00000000000000000000000000000000007F3
:1056B000FE0007FE00003000003000003000003027
:1056C000000030003030003030003030003030002A
:1056D0003060003FE0000F8000000000000000008C
:1056E00000000000000000000000000000000000BA
:1056F000000000000000007F3E007F3E00183000E8
:1057000018600018C0001980001B80001FC0001C1A
:10571000E0001870001830001838007F1F007F1F4D
:105720000000000000000000000000000000000079
:105730000000000000000000000000000000007FEA
:1057400080007F80000C00000C00000C00000C00AA
:10575000000C00000C00000C0C000C0C000C0C00E9
:105760000C0C007FFC007FFC00000000000000002B
:105770000000000000000000000000000000000029
:1057800000000000000000F00F00F81F00381C00AF
:105790003C3C003C3C00366C00366C0033CC0033A3
:1057A000CC00318C00300C00300C00FE7F00FE7FFE
:1057B00000000000000000000000000000000000E9
:1057C0000000000000000000000000000000007861
:1057D000FE0078FE001C18001E18001F18001B1881
:1057E000001B980019D80018D80018F80018780085
:1057F0001838007F18007F1800000000000000002B
:105800000000000000000000000000000000000098
:105810000000000000000003C0000FF0001C380072
:10582000181800381C00300C00300C00300C003010
:105830000C00381C001818001C38000FF00003C0C2
:105840000000000000000000000000000000000058
:105850000000000000000000000000000000003F09
:10586000F0003FF8000C1C000C0C000C0C000C0CA1
:10587000000C18000FF8000FE0000C00000C0000F6
:105880000C00003FC0003FC000000000000000000E
:105890000000000000000000000000000000000008
:1058A0000000000000000003C0000FF0001C3800E2
:1058B000181800381C00300C00300C00300C003080
:1058C0000C00381C001818001C38000FF00007C02E
:1058D0000007CC000FFC000C3800000000000000A6
:1058E0000000000000000000000000000000007F39
:1058F000E0007FF000183800181800181800183859
:10590000001FF0001FC00018E000187000183000E1
:105910001838007F1E007F0E00000000000000000D
:105920000000000000000000000000000000000077
:105930000000000000000007D8000FF8001C38002D
:105940001818001818001E00000FC00003F0000017
:1059500078001818001818001C38001FF0001BE011
:105960000000000000000000000000000000000037
:105970000000000000000000000000000000003FE8
:10598000FC003FFC00318C00318C00318C00318CEC
:105990000001800001800001800001800001800082
:1059A0000180000FF0000FF0000000000000000078
:1059B00000000000000000000000000000000000E7
:1059C000000000000000007E7E007E7E00181800AF
:1059D00018180018180018180018180018180018BF
:1059E00018001818001818000C30000FF00003C041
:1059F00000000000000000000000000000000000A7
:105A00000000000000000000000000000000007F17
:105A10007F007F7F00180C000C18000C18000C1879
:105A200000063000063000036000036000036000E1
:105A300001C00001C0000080000000000000000064
:105A40000000000000000000000000000000000056
:105A500000000000000000FE3F80FE3F8030060096
:105A600030060030860019CC0019CC001B6C001BDE
:105A70006C001E7C000E38000E38000C18000C184C
:105A80000000000000000000000000000000000016
:105A90000000000000000000000000000000007E88
:105AA0007E007E7E001818000C300006600003C0E7
:105AB0000001800001800003C0000660000C30007F
:105AC0001818007E7E007E7E0000000000000000AE
:105AD00000000000000000000000000000000000C6
